:020000040000FA
:100000000C9462000C948A000C948A000C948A0070
:100010000C948A000C948A000C948A000C948A0038
:100020000C948A000C948A000C948A000C948A0028
:100030000C948A000C948A000C948A000C948A0018
:100040000C9407030C948A000C9477030C945103CE
:100050000C948A000C948A000C948A000C948A00F8
:100060000C948A000C948A000000000023002600F3
:10007000290000000000240027002A0000000000E2
:10008000250028002B0004040404040404040202D4
:100090000202020203030303030301020408102007
:1000A0004080010204081020010204081020000012
:1000B0000008000201000003040700000000000027
:1000C0000000A90311241FBECFEFD8E0DEBFCDBFD3
:1000D00012E0A0E0B1E0EEE4F2E102C005900D9282
:1000E000A833B107D9F722E0A8E3B2E001C01D921E
:1000F000A33FB207E1F710E0C2E6D0E004C02197C9
:10010000FE010E941F09C136D107C9F70E94DA0318
:100110000C9425090C940000833081F028F4813080
:1001200099F08230A9F008958730A9F08830C9F09D
:100130008430B1F4809180008F7D03C08091800075
:100140008F7780938000089584B58F7784BD08955C
:1001500084B58F7DFBCF8091B0008F778093B00006
:1001600008958091B0008F7DF9CF1F93CF93DF93D7
:10017000282F30E0F901E255FF4F8491F901E6564E
:10018000FF4FD491F901EA57FF4FC491CC23A9F056
:10019000162F81110E948C00EC2FF0E0EE0FFF1F54
:1001A000E458FF4FA591B4918FB7F894EC911111D9
:1001B00008C0D095DE23DC938FBFDF91CF911F91D4
:1001C0000895DE2BF8CFCF93DF9390E0FC01E65645
:1001D000FF4F24918A579F4FFC0184918823C9F0D7
:1001E00090E0880F991FFC01EE58FF4FA591B49144
:1001F000FC01E458FF4FC591D49161110DC09FB728
:10020000F8948C91209582238C93888128232883CD
:100210009FBFDF91CF910895623051F49FB7F8945A
:100220003C91822F809583238C93E8812E2BEFCFF6
:100230008FB7F894EC912E2B2C938FBFEACF2FB76A
:10024000F894609150027091510280915202909105
:1002500053022FBF0895AF92BF92CF92DF92EF92D9
:10026000FF920F931F93CF93DF936C017B018B0160
:10027000040F151FEB015E01AE18BF08C017D107B0
:1002800059F06991D601ED91FC910190F081E02D3A
:10029000C6010995892B79F7C501DF91CF911F918F
:1002A0000F91FF90EF90DF90CF90BF90AF900895A7
:1002B000FC01538D448D252F30E0842F90E0821B6C
:1002C000930B541710F0CF96089501970895FC01F1
:1002D000918D828D981761F0A28DAE0FBF2FB11D49
:1002E0005D968C91928D9F5F9F73928F90E00895A1
:1002F0008FEF9FEF0895FC01918D828D981731F05B
:10030000828DE80FF11D858D90E008958FEF9FEFAE
:100310000895FC01918D228D892F90E0805C9F4F84
:10032000821B91098F739927089584E592E00E94BA
:10033000890121E0892B09F420E0822F089580E0D3
:1003400090E0892B29F00E94950181110C94000006
:100350000895FC01A48DA80FB92FB11DA35ABF4F5A
:100360002C91848D90E001968F739927848FA689B4
:10037000B7892C93A089B1898C91837080648C9308
:10038000938D848D981306C00288F389E02D8081B7
:100390008F7D80830895EF92FF920F931F93CF93E9
:1003A000DF93EC0181E0888F9B8D8C8D98131AC0B0
:1003B000E889F989808185FF15C09FB7F894EE8997
:1003C000FF896083E889F9898081837080648083F4
:1003D0009FBF81E090E0DF91CF911F910F91FF903F
:1003E000EF900895F62E0B8D10E00F5F1F4F0F73E7
:1003F0001127E02E8C8D8E110CC00FB607FCFACFA2
:10040000E889F989808185FFF5CFCE010E94A90195
:10041000F1CFEB8DEC0FFD2FF11DE35AFF4FF08272
:100420009FB7F8940B8FEA89FB8980818062CFCFD8
:10043000CF93DF93EC01888D8823B9F0AA89BB891B
:10044000E889F9898C9185FD03C0808186FD0DC006
:100450000FB607FCF7CF8C9185FFF2CF808185FF27
:10046000EDCFCE010E94A901E9CFDF91CF91089590
:10047000FC0101900020E9F73197AF01481B590BAF
:10048000BC0184E592E00C942B018F929F92AF9275
:10049000BF920F931F93CF93DF93CDB7DEB7A19792
:1004A0000FB6F894DEBF0FBECDBF19A2423008F4DC
:1004B0004AE08E010F5D1F4F842E912CB12CA12C90
:1004C000A50194010E94FD08E62FB901CA01EA3096
:1004D000F4F4E05DD801EE938D01232B242B252B22
:1004E00079F790E080E0109719F0CD010E94380272
:1004F000A1960FB6F894DEBF0FBECDBFDF91CF91AE
:100500001F910F91BF90AF909F908F900895E95CDD
:10051000E1CFCF93DF930E943802EC018BE991E0A9
:100520000E9438028C0F9D1FDF91CF9108952F926A
:100530003F924F925F926F927F928F929F92AF9273
:10054000BF92CF92DF92EF92FF920F931F93CF93C0
:10055000DF931C01CB01BA01E901A70196010E94BA
:1005600090086B017C010E94E7072B013C01B80158
:10057000110F880B990B0E94AC074B015C01A30182
:100580009201C701B6010E9495069B01AC01C5010D
:10059000B4010E9490080E94E7070E947407660F4A
:1005A000771FC60FD71F48815981F10190E080E085
:1005B00061E070E0A1E09B01082E02C0220F331F12
:1005C0000A94E2F724233523082E02C03695279596
:1005D0000A94E2F7232BC9F41082019631968830F1
:1005E000910549F7DF91CF911F910F91FF90EF9007
:1005F000DF90CF90BF90AF909F908F907F906F9043
:100600005F904F903F902F900895A083E6CF1F9268
:100610000F920FB60F9211242F933F938F939F93B6
:10062000AF93BF938091500290915102A0915202DA
:10063000B091530230914F0223E0230F2D3758F52C
:100640000196A11DB11D20934F02809350029093FB
:100650005102A0935202B093530280914B029091A9
:100660004C02A0914D02B0914E020196A11DB11D08
:1006700080934B0290934C02A0934D02B0934E0294
:10068000BF91AF919F918F913F912F910F900FBE8E
:100690000F901F90189526E8230F0296A11DB11DFB
:1006A000D2CF1F920F920FB60F9211242F933F9328
:1006B0004F935F936F937F938F939F93AF93BF936A
:1006C000EF93FF9384E592E00E94A901FF91EF91DF
:1006D000BF91AF919F918F917F916F915F914F915A
:1006E0003F912F910F900FBE0F901F9018951F9262
:1006F0000F920FB60F9211242F938F939F93EF9326
:10070000FF93E0916402F09165028081E0916A02BA
:10071000F0916B0282FD1BC0908180916D028F5F12
:100720008F7320916E02821741F0E0916D02F0E02C
:10073000EC5AFD4F958F80936D02FF91EF919F9141
:100740008F912F910F900FBE0F901F901895808161
:10075000F4CFE4E5F2E01382128288EE93E0A0E0A9
:10076000B0E084839583A683B7838DE891E091837D
:10077000808385EC90E09587848784EC90E0978770
:10078000868780EC90E0918B808B81EC90E0938B5E
:10079000828B82EC90E0958B848B86EC90E0978B3B
:1007A000868B118E128E138E148E1092F20210927E
:1007B000F1020895CF93DF93CDB7DEB7C054D109CE
:1007C0000FB6F894DEBF0FBECDBF789484B58260BB
:1007D00084BD84B5816084BD85B5826085BD85B5E5
:1007E000816085BD80916E00816080936E00109263
:1007F00081008091810082608093810080918100DE
:10080000816080938100809180008160809380006E
:100810008091B10084608093B1008091B0008160CC
:100820008093B00080917A00846080937A008091F8
:100830007A00826080937A0080917A008160809350
:100840007A0080917A00806880937A001092C100CB
:1008500062E088E00E94E30060E083E10E94E30040
:1008600009E8E02E01E0F02E09E711E0F8018081AF
:100870000E5F1F4F61E00E94E300E016F106B1F742
:10088000E0916402F091650282E08083E091600271
:10089000F09161021082E0916202F09163028FECAC
:1008A000808310926C02E0916802F091690286E008
:1008B0008083E0916602F09167028081806180838D
:1008C000E0916602F0916702808188608083E09108
:1008D0006602F0916702808180688083E091660201
:1008E000F091670280818F7D80835E01F9E3AF0E16
:1008F000B11C88248A94912C10E0612E10E0712E96
:10090000E6EBF0E08491E2EAF0E01491EEE8F0E04A
:100910000491002309F4F3C081110E948C00E02FA0
:10092000F0E0EE0FFF1FE859FF4FA591B4918C91B5
:10093000182391E080E009F490E0092F182F8091AE
:100940000001882389F00115110571F40E941F012F
:1009500060934702709348028093490290934A0241
:100960008EE991E00E94890280910001811131C0DD
:100970000130110571F50E941F01C0904702D0900F
:100980004802E0904902F0904A029B01AC012C1908
:100990003D094E095F0969017A018DEA91E00E94E3
:1009A00038024AE0C701B6010E9445028BE991E096
:1009B0000E94380238EBC3163BE0D306E104F10491
:1009C00008F4A0C041E0409346028CEC91E00E9404
:1009D00089020170009300010E941F010E94AA0772
:1009E00020E030E04AE754E40E94020720914002F0
:1009F0003091410240914202509143020E9495067B
:100A000060933C0270933D0280933E0290933F02BC
:100A100085E480937C0080917A00806480937A00E2
:100A200080917A0086FDFCCF8091780090917900CA
:100A300001E010E08A3651E095073CF002E010E05A
:100A40008739924014F410E000E08091F102909117
:100A5000F20280179107B1F01093F2020093F102B5
:100A60000E941F010E94AA0720E030E04AE754E4F8
:100A70000E940207609338027093390280933A0211
:100A800090933B020E941F010E94AA0720E030E0E1
:100A90004AE754E40E94020720913802309139025B
:100AA00040913A0250913B020E9495061B012C0195
:100AB00088E0F50111928A95E9F70130110509F0F6
:100AC0006BC085EF91E00E94890282E1E1E0F1E0F4
:100AD000DE01119601900D928A95E1F7C12CD12C7F
:100AE000F0ECEF2EFFE3FF2E09E010E09E012F5FF8
:100AF0003F4FB201A101C5010E94970267C010E0FB
:100B000000E01DCF8091440290914502019685300E
:100B10009105ECF5909345028093440210924602B1
:100B20000E941F010E94AA0720E030E04AE754E437
:100B30000E94020760934002709341028093420238
:100B4000909343028EED91E00E943802C0904402DF
:100B5000D09045020D2C000CEE08FF084AE0C701BA
:100B6000B601F7FE0DC06DE284E592E00E94CB0174
:100B700066277727CB016C197D098E099F094AE00A
:100B80000E9445028BE991E00E94380222CF109228
:100B9000450210924402C2CF0230110541F482E0B6
:100BA00092E00E94890282E1E3E1F1E091CF80913D
:100BB0004402909145028230910509F47FC0D4F53A
:100BC000009709F45CC0019709F45EC08091460269
:100BD000882351F019AE1AAE1BAE1CAE1DAE1EAE70
:100BE0001FAE21961FAE219785016501F8E0CF0E5B
:100BF000D11C89E7E82E81E0F82EF80191918F0150
:100C0000F7018081F2E0EF0EF11C61E0911101C06B
:100C100060E00E94B500C016D10679F76114710436
:100C200009F46ECE0E949501882309F462CE0E94D9
:100C300000005FCE8330910509F459C0049731F666
:100C400083E392E00E94890240913C0250913D0270
:100C500060913E0270913F0288E3E5E2F1E0DE013F
:100C6000119601900D928A95E1F79DECC92E9CECAE
:100C7000D92EED2C9DE3F92E0CE110E01BC080E194
:100C800092E00E948902A2CF84E192E00E94890250
:100C900040913C0250913D0260913E0270913F02B2
:100CA0009A828982C12CD12CE0E8EE2EEFE3FE2E51
:100CB00001E010E09E012F5F3F4F1DCF8BE192E0DE
:100CC0000E94890240913C0250913D0260913E0297
:100CD00070913F029A8289821C821B82C12CD12C86
:100CE00030E8E32E3FE3F32E02E010E0E3CF84E2AE
:100CF00092E00E94890240913C0250913D02609135
:100D00003E0270913F028CE1EDE5F1E0DE011196CB
:100D100001900D928A95E1F7C12CD12C20E8E22EAA
:100D20002FE3F22E0EE010E0C5CF5058BB27AA27C4
:100D30000E94AD060C943E080E94300838F00E94D4
:100D4000370820F039F49F3F19F426F40C942D084D
:100D50000EF4E095E7FB0C94FE07E92F0E944F0884
:100D600058F3BA17620773078407950720F079F4E0
:100D7000A6F50C9489080EF4E0950B2EBA2FA02D41
:100D80000B01B90190010C01CA01A0011124FF2738
:100D9000591B99F0593F50F4503E68F11A16F04033
:100DA000A22F232F342F4427585FF3CF4695379532
:100DB0002795A795F0405395C9F77EF41F16BA0BF7
:100DC000620B730B840BBAF09150A1F0FF0FBB1FA5
:100DD000661F771F881FC2F70EC0BA0F621F731FEE
:100DE000841F48F4879577956795B795F7959E3F4B
:100DF00008F0B0CF9395880F08F09927EE0F9795DC
:100E0000879508950E9416070C943E080E943708A3
:100E100058F00E94300840F029F45F3F29F00C940C
:100E2000FE0751110C948A080C942D080E944F085B
:100E300068F39923B1F3552391F3951B550BBB2709
:100E4000AA2762177307840738F09F5F5F4F220F4E
:100E5000331F441FAA1FA9F335D00E2E3AF0E0E845
:100E600032D091505040E695001CCAF72BD0FE2F8F
:100E700029D0660F771F881FBB1F26173707480723
:100E8000AB07B0E809F0BB0B802DBF01FF279358DB
:100E90005F4F3AF09E3F510578F00C94FE070C949A
:100EA0008A085F3FE4F3983ED4F38695779567957B
:100EB000B795F7959F5FC9F7880F911D9695879510
:100EC00097F90895E1E0660F771F881FBB1F62172F
:100ED00073078407BA0720F0621B730B840BBA0BED
:100EE000EE1F88F7E09508950E947B076894B11182
:100EF0000C948A0808950E94570888F09F5798F02C
:100F0000B92F9927B751B0F0E1F0660F771F881F0E
:100F1000991F1AF0BA95C9F714C0B13091F00E9428
:100F20008908B1E008950C948908672F782F8827E5
:100F3000B85F39F0B93FCCF3869577956795B3954F
:100F4000D9F73EF490958095709561957F4F8F4FBE
:100F50009F4F0895E89409C097FB3EF490958095C3
:100F6000709561957F4F8F4F9F4F9923A9F0F92F6F
:100F700096E9BB279395F695879577956795B795ED
:100F8000F111F8CFFAF4BB0F11F460FF1BC06F5FD3
:100F90007F4F8F4F9F4F16C0882311F096E911C0E5
:100FA000772321F09EE8872F762F05C0662371F006
:100FB00096E8862F70E060E02AF09A95660F771F1A
:100FC000881FDAF7880F9695879597F908950E94FC
:100FD000710890F09F3748F4911116F00C948A082C
:100FE00060E070E080E89FEB089526F41B16611D19
:100FF000711D811D0C9404080C941F0897F99F67BC
:1010000080E870E060E00895882371F4772321F090
:101010009850872B762F07C0662311F499270DC0AF
:101020009051862B70E060E02AF09A95660F771F4A
:10103000881FDAF7880F9695879597F908959F3F4F
:1010400031F0915020F4879577956795B795880F83
:10105000911D9695879597F908959FEF80EC0895D7
:1010600000240A9416161706180609060895002487
:101070000A9412161306140605060895092E039401
:10108000000C11F4882352F0BB0F40F4BF2B11F475
:1010900060FF04C06F5F7F4F8F4F9F4F089557FDD4
:1010A0009058440F551F59F05F3F71F04795880FD6
:1010B00097FB991F61F09F3F79F08795089512166D
:1010C00013061406551FF2CF4695F1DF08C0161619
:1010D00017061806991FF1CF8695710561050894CA
:1010E00008950E945708A0F0BEE7B91788F4BB27FF
:1010F0009F3860F41616B11D672F782F8827985FE8
:10110000F7CF869577956795B11D93959639C8F376
:101110000895E894BB2766277727CB0197F90895B0
:101120000E94A3080C943E080E94300838F00E94E8
:10113000370820F0952311F00C94FE070C942D082D
:1011400011240C948A080E944F0870F3959FC1F3F4
:10115000950F50E0551F629FF001729FBB27F00D65
:10116000B11D639FAA27F00DB11DAA1F649F6627BA
:10117000B00DA11D661F829F2227B00DA11D621F09
:10118000739FB00DA11D621F839FA00D611D221FC3
:10119000749F3327A00D611D231F849F600D211DA7
:1011A000822F762F6A2F11249F5750409AF0F1F02A
:1011B00088234AF0EE0FFF1FBB1F661F771F881F93
:1011C00091505040A9F79E3F510580F00C94FE07C6
:1011D0000C948A085F3FE4F3983ED4F386957795A4
:1011E0006795B795F795E7959F5FC1F7FE2B880F39
:1011F000911D9695879597F90895A1E21A2EAA1B3D
:10120000BB1BFD010DC0AA1FBB1FEE1FFF1FA217B6
:10121000B307E407F50720F0A21BB30BE40BF50BB3
:10122000661F771F881F991F1A9469F7609570953C
:10123000809590959B01AC01BD01CF010895EE0F03
:10124000FF1F0590F491E02D0994F894FFCF0180E1
:1012500000C000E000F000F800FC00FE00FF00000D
:10126000000100030007000F001F003F007F00FF88
:10127000000000FF000000FF000000FF0000000071
:10128000000000FF00FF00FF000000FF00FF00FF64
:10129000000000FF00FF00FF000000FF000000FF53
:1012A000000000FF0000000000000080004000205F
:1012B0000010000800040002000100020004000801
:1012C0000010002000400005000600070009000A89
:1012D000000B000C000D0000000000CB012B01589A
:1012E000011802890167017B010D0A00425554541F
:1012F0004F4E205052455353454400425554544F8D
:101300004E2052454C45415345442C207072657324
:10131000732074696D65203D20004C4F4E4720506E
:1013200052455353202D3E204F46460053484F52BE
:1013300054205052455353202D3E204D4F444520BC
:101340003D20005475726E696E67206C656674008E
:101350005475726E696E67207269676874004F66B3
:101360006600416C6C206F6E00466C617368696E3C
:1013700067004261636B20616E6420666F727468FF
:0613800000534F53000072
:107E0000112484B714BE81FFF0D085E080938100F7
:107E100082E08093C00088E18093C10086E0809377
:107E2000C20080E18093C4008EE0C9D0259A86E02C
:107E300020E33CEF91E0309385002093840096BBD3
:107E4000B09BFECF1D9AA8958150A9F7CC24DD24C4
:107E500088248394B5E0AB2EA1E19A2EF3E0BF2EE7
:107E6000A2D0813461F49FD0082FAFD0023811F036
:107E7000013811F484E001C083E08DD089C08234E0
:107E800011F484E103C0853419F485E0A6D080C0E4
:107E9000853579F488D0E82EFF2485D0082F10E0AE
:107EA000102F00270E291F29000F111F8ED06801E7
:107EB0006FC0863521F484E090D080E0DECF843638
:107EC00009F040C070D06FD0082F6DD080E0C81688
:107ED00080E7D80618F4F601B7BEE895C0E0D1E017
:107EE00062D089930C17E1F7F0E0CF16F0E7DF06D8
:107EF00018F0F601B7BEE89568D007B600FCFDCFD4
:107F0000A601A0E0B1E02C9130E011968C91119780
:107F100090E0982F8827822B932B1296FA010C0160
:107F200087BEE89511244E5F5F4FF1E0A038BF0790
:107F300051F7F601A7BEE89507B600FCFDCF97BE46
:107F4000E89526C08437B1F42ED02DD0F82E2BD052
:107F50003CD0F601EF2C8F010F5F1F4F84911BD097
:107F6000EA94F801C1F70894C11CD11CFA94CF0C13
:107F7000D11C0EC0853739F428D08EE10CD085E9AC
:107F80000AD08FE07ACF813511F488E018D01DD067
:107F900080E101D065CF982F8091C00085FFFCCF94
:107FA0009093C60008958091C00087FFFCCF809118
:107FB000C00084FD01C0A8958091C6000895E0E648
:107FC000F0E098E1908380830895EDDF803219F02E
:107FD00088E0F5DFFFCF84E1DECF1F93182FE3DFCA
:107FE0001150E9F7F2DF1F91089580E0E8DFEE27F6
:047FF000FF270994CA
:027FFE00040479
:00000001FF
