:020000040000FA
:100000000C9462000C948A000C948A000C948A0070
:100010000C948A000C948A000C948A000C948A0038
:100020000C948A000C948A000C948A000C948A0028
:100030000C948A000C948A000C948A000C948A0018
:100040000C94C5020C948A000C9435030C940F0395
:100050000C948A000C948A000C948A000C948A00F8
:100060000C948A000C948A000000000023002600F3
:10007000290000000000240027002A0000000000E2
:10008000250028002B0004040404040404040202D4
:100090000202020203030303030301020408102007
:1000A0004080010204081020010204081020000012
:1000B0000008000201000003040700000000000027
:1000C0000000670311241FBECFEFD8E0DEBFCDBF15
:1000D00011E0A0E0B1E0E6E2F1E102C005900D928E
:1000E000A03EB107D9F722E0A0EEB1E001C01D9219
:1000F000AD39B207E1F710E0C2E6D0E004C02197C5
:10010000FE010E948B08C136D107C9F70E949803EF
:100110000C9491080C940000833081F028F4813015
:1001200099F08230A9F008958730A9F08830C9F09D
:100130008430B1F4809180008F7D03C08091800075
:100140008F7780938000089584B58F7784BD08955C
:1001500084B58F7DFBCF8091B0008F778093B00006
:1001600008958091B0008F7DF9CF1F93CF93DF93D7
:10017000282F30E0F901E255FF4F8491F901E6564E
:10018000FF4FD491F901EA57FF4FC491CC23A9F056
:10019000162F81110E948C00EC2FF0E0EE0FFF1F54
:1001A000E458FF4FA591B4918FB7F894EC911111D9
:1001B00008C0D095DE23DC938FBFDF91CF911F91D4
:1001C0000895DE2BF8CFCF93DF9390E0FC01E65645
:1001D000FF4F24918A579F4FFC0184918823C9F0D7
:1001E00090E0880F991FFC01EE58FF4FA591B49144
:1001F000FC01E458FF4FC591D49161110DC09FB728
:10020000F8948C91209582238C93888128232883CD
:100210009FBFDF91CF910895623051F49FB7F8945A
:100220003C91822F809583238C93E8812E2BEFCFF6
:100230008FB7F894EC912E2B2C938FBFEACF2FB76A
:10024000F8946091FA017091FB018091FC0190910A
:10025000FD012FBF0895AF92BF92CF92DF92EF9230
:10026000FF920F931F93CF93DF936C017B018B0160
:10027000040F151FEB015E01AE18BF08C017D107B0
:1002800059F06991D601ED91FC910190F081E02D3A
:10029000C6010995892B79F7C501DF91CF911F918F
:1002A0000F91FF90EF90DF90CF90BF90AF900895A7
:1002B000FC01538D448D252F30E0842F90E0821B6C
:1002C000930B541710F0CF96089501970895FC01F1
:1002D000918D828D981761F0A28DAE0FBF2FB11D49
:1002E0005D968C91928D9F5F9F73928F90E00895A1
:1002F0008FEF9FEF0895FC01918D828D981731F05B
:10030000828DE80FF11D858D90E008958FEF9FEFAE
:100310000895FC01918D228D892F90E0805C9F4F84
:10032000821B91098F73992708958EEF91E00E94A7
:10033000890121E0892B09F420E0822F089580E0D3
:1003400090E0892B29F00E94950181110C94000006
:100350000895FC01A48DA80FB92FB11DA35ABF4F5A
:100360002C91848D90E001968F739927848FA689B4
:10037000B7892C93A089B1898C91837080648C9308
:10038000938D848D981306C00288F389E02D8081B7
:100390008F7D80830895EF92FF920F931F93CF93E9
:1003A000DF93EC0181E0888F9B8D8C8D98131AC0B0
:1003B000E889F989808185FF15C09FB7F894EE8997
:1003C000FF896083E889F9898081837080648083F4
:1003D0009FBF81E090E0DF91CF911F910F91FF903F
:1003E000EF900895F62E0B8D10E00F5F1F4F0F73E7
:1003F0001127E02E8C8D8E110CC00FB607FCFACFA2
:10040000E889F989808185FFF5CFCE010E94A90195
:10041000F1CFEB8DEC0FFD2FF11DE35AFF4FF08272
:100420009FB7F8940B8FEA89FB8980818062CFCFD8
:10043000CF93DF93EC01888D8823B9F0AA89BB891B
:10044000E889F9898C9185FD03C0808186FD0DC006
:100450000FB607FCF7CF8C9185FFF2CF808185FF27
:10046000EDCFCE010E94A901E9CFDF91CF91089590
:10047000CF93DF93FC0101900020E9F73197AF01A2
:10048000481B590BBC018EEF91E00E942B01EC013F
:1004900042E050E06AE971E08EEF91E00E942B01AA
:1004A0008C0F9D1FDF91CF9108952F923F924F9215
:1004B0005F926F927F928F929F92AF92BF92CF92F4
:1004C000DF92EF92FF920F931F93CF93DF931C0164
:1004D000CB01BA01E901A70196010E941E086B0138
:1004E0007C010E9475072B013C01B801110F880B9C
:1004F000990B0E943A074B015C01A3019201C701CD
:10050000B6010E9423069B01AC01C501B4010E9403
:100510001E080E9475070E940207660F771FC60F0C
:10052000D71F48815981F10190E080E061E070E0DF
:10053000A1E09B01082E02C0220F331F0A94E2F7AC
:1005400024233523082E02C0369527950A94E2F716
:10055000232BC9F41082019631968830910549F712
:10056000DF91CF911F910F91FF90EF90DF90CF908F
:10057000BF90AF909F908F907F906F905F904F90C3
:100580003F902F900895A083E6CF1F920F920FB651
:100590000F9211242F933F938F939F93AF93BF9309
:1005A0008091FA019091FB01A091FC01B091FD01B5
:1005B0003091F90123E0230F2D3758F50196A11D45
:1005C000B11D2093F9018093FA019093FB01A09350
:1005D000FC01B093FD018091F5019091F601A0918D
:1005E000F701B091F8010196A11DB11D8093F501AD
:1005F0009093F601A093F701B093F801BF91AF91EA
:100600009F918F913F912F910F900FBE0F901F9050
:10061000189526E8230F0296A11DB11DD2CF1F9277
:100620000F920FB60F9211242F933F934F935F9326
:100630006F937F938F939F93AF93BF93EF93FF93AA
:100640008EEF91E00E94A901FF91EF91BF91AF91D0
:100650009F918F917F916F915F914F913F912F91DA
:100660000F900FBE0F901F9018951F920F920FB60C
:100670000F9211242F938F939F93EF93FF93E09109
:100680000E02F0910F028081E0911402F0911502A8
:1006900082FD1BC09081809117028F5F8F73209124
:1006A0001802821741F0E0911702F0E0E250FE4F8D
:1006B000958F80931702FF91EF919F918F912F91CA
:1006C0000F900FBE0F901F9018958081F4CFEEEF22
:1006D000F1E01382128288EE93E0A0E0B0E0848320
:1006E0009583A683B7838CE891E09183808385EC22
:1006F00090E09587848784EC90E09787868780ECEC
:1007000090E0918B808B81EC90E0938B828B82ECDC
:1007100090E0958B848B86EC90E0978B868B118E86
:10072000128E138E148E10929C0210929B020895CA
:10073000CF93DF93CDB7DEB7C054D1090FB6F8948D
:10074000DEBF0FBECDBF789484B5826084BD84B512
:10075000816084BD85B5826085BD85B5816085BDBC
:1007600080916E00816080936E0010928100809174
:1007700081008260809381008091810081608093FC
:100780008100809180008160809380008091B10021
:1007900084608093B1008091B00081608093B0004C
:1007A00080917A00846080937A0080917A008260E0
:1007B00080937A0080917A00816080937A008091A2
:1007C0007A00806880937A001092C10062E088E02D
:1007D0000E94E30060E083E10E94E30008E711E08B
:1007E000F80180810E5F1F4F61E00E94E300F1E09D
:1007F00008381F07A9F7E0910E02F0910F0282E07E
:100800008083E0910A02F0910B021082E0910C02C9
:10081000F0910D028FEC808310921602E09112028B
:10082000F091130286E08083E0911002F0911102B2
:10083000808180618083E0911002F09111028081BB
:1008400088608083E0911002F091110280818068BD
:100850008083E0911002F091110280818F7D80836E
:100860005E0129E3A20EB11C88248A94912C10E029
:10087000612E10E0712EE6EBF0E08491E2EAF0E008
:100880001491EEE8F0E00491002309F4D5C0811141
:100890000E948C00E02FF0E0EE0FFF1FE859FF4FA1
:1008A000A591B4918C91182381E009F080E090919A
:1008B000F401981709F4C3C18093F401882309F463
:1008C000BDC00E941F016093F0017093F1018093FD
:1008D000F2019093F3011092EF018091EF018111E9
:1008E00018C00E941F010091F0011091F1012091A8
:1008F000F2013091F301601B710B820B930B683B8B
:100900007B408105910528F021E02093EF012093A1
:10091000EE010E941F010E94380720E030E04AE704
:1009200054E40E9490062091E8013091E901409141
:10093000EA015091EB010E9423066093E401709359
:10094000E5018093E6019093E70185E480937C00C4
:1009500080917A00806480937A0080917A0086FD8D
:10096000FCCF809178009091790001E010E08A3608
:10097000E1E09E073CF002E010E08739924014F479
:1009800010E000E080919B0290919C0280179107FB
:10099000B1F010939C0200939B020E941F010E94E1
:1009A000380720E030E04AE754E40E949006609364
:1009B000E0017093E1018093E2019093E3010E94D2
:1009C0001F010E94380720E030E04AE754E40E940B
:1009D00090062091E0013091E1014091E2015091B7
:1009E000E3010E9423061B012C0188E0F50111920E
:1009F0008A95E9F70130110509F04AC08DE991E0C7
:100A00000E94380282E1E0E0F1E0DE0111960190FF
:100A10000D928A95E1F7C12CD12CA0ECEA2EAFE320
:100A2000FA2E09E010E09E012F5F3F4FB201A101B5
:100A3000C5010E94550254C081E039CF8091EF0179
:100A4000811167CF8091EC019091ED010196853085
:100A50009105CCF49093ED018093EC011092EE019E
:100A60000E941F010E94380720E030E04AE754E46A
:100A70000E9490066093E8017093E9018093EA0177
:100A80009093EB0146CF1092ED011092EC01E6CF6E
:100A900002301105B1F48AEA91E00E94380282E145
:100AA000E2E1F1E0DE01119601900D928A95E1F705
:100AB000C12CD12CF0ECEF2EFFE3FF2E06E010E06E
:100AC000B2CF8091EC019091ED018230910509F453
:100AD0007FC0D4F5009709F45CC0019709F45EC0AB
:100AE0008091EE01882351F019AE1AAE1BAE1CAEF8
:100AF0001DAE1EAE1FAE21961FAE2197850165016A
:100B0000F8E0CF0ED11C88E7E82E81E0F82EF8013E
:100B100091918F01F7018081F2E0EF0EF11C61E00D
:100B2000911101C060E00E94B500C016D10679F7AE
:100B30006114710409F49FCE0E949501882309F481
:100B400096CE0E94000093CE8330910509F459C0DF
:100B5000049731F68BED91E00E9438024091E40158
:100B60005091E5016091E6017091E70188E3E4E2CC
:100B7000F1E0DE01119601900D928A95E1F79DEC6E
:100B8000C92E9CECD92EED2C9DE3F92E0CE110E042
:100B90001BC088EB91E00E943802A2CF8CEB91E061
:100BA0000E9438024091E4015091E5016091E60114
:100BB0007091E7019A828982C12CD12CE0E8EE2E57
:100BC000EFE3FE2E01E010E09E012F5F3F4F30CF9C
:100BD00083EC91E00E9438024091E4015091E501DC
:100BE0006091E6017091E7019A8289821C821B82E2
:100BF000C12CD12C30E8E32E3FE3F32E02E010E0CD
:100C0000E3CF8CEC91E00E9438024091E4015091D6
:100C1000E5016091E6017091E7018CE1ECE5F1E01E
:100C2000DE01119601900D928A95E1F7C12CD12C2D
:100C300020E8E22E2FE3F22E0EE010E0C5CF88234D
:100C400009F467CE4ACE5058BB27AA270E943B061C
:100C50000C94CC070E94BE0738F00E94C50720F014
:100C600039F49F3F19F426F40C94BB070EF4E09579
:100C7000E7FB0C948C07E92F0E94DD0758F3BA17A5
:100C8000620773078407950720F079F4A6F50C94A2
:100C900017080EF4E0950B2EBA2FA02D0B01B90109
:100CA00090010C01CA01A0011124FF27591B99F0E2
:100CB000593F50F4503E68F11A16F040A22F232FEE
:100CC000342F4427585FF3CF469537952795A7953E
:100CD000F0405395C9F77EF41F16BA0B620B730BE5
:100CE000840BBAF09150A1F0FF0FBB1F661F771F56
:100CF000881FC2F70EC0BA0F621F731F841F48F40B
:100D0000879577956795B795F7959E3F08F0B0CF93
:100D10009395880F08F09927EE0F9795879508957A
:100D20000E94A4060C94CC070E94C50758F00E94AC
:100D3000BE0740F029F45F3F29F00C948C07511155
:100D40000C9418080C94BB070E94DD0768F39923E4
:100D5000B1F3552391F3951B550BBB27AA276217B7
:100D60007307840738F09F5F5F4F220F331F441FC4
:100D7000AA1FA9F335D00E2E3AF0E0E832D09150F8
:100D80005040E695001CCAF72BD0FE2F29D0660FE5
:100D9000771F881FBB1F261737074807AB07B0E828
:100DA00009F0BB0B802DBF01FF2793585F4F3AF02E
:100DB0009E3F510578F00C948C070C9418085F3F07
:100DC000E4F3983ED4F3869577956795B795F795B4
:100DD0009F5FC9F7880F911D9695879597F908959C
:100DE000E1E0660F771F881FBB1F62177307840738
:100DF000BA0720F0621B730B840BBA0BEE1F88F747
:100E0000E09508950E9409076894B1110C941808A0
:100E100008950E94E50788F09F5798F0B92F992709
:100E2000B751B0F0E1F0660F771F881F991F1AF0D5
:100E3000BA95C9F714C0B13091F00E941708B1E01B
:100E400008950C941708672F782F8827B85F39F01A
:100E5000B93FCCF3869577956795B395D9F73EF46E
:100E600090958095709561957F4F8F4F9F4F089516
:100E7000E89409C097FB3EF4909580957095619534
:100E80007F4F8F4F9F4F9923A9F0F92F96E9BB27EA
:100E90009395F695879577956795B795F111F8CF66
:100EA000FAF4BB0F11F460FF1BC06F5F7F4F8F4FD1
:100EB0009F4F16C0882311F096E911C0772321F0C7
:100EC0009EE8872F762F05C0662371F096E8862F5F
:100ED00070E060E02AF09A95660F771F881FDAF7B6
:100EE000880F9695879597F908950E94FF0790F0CF
:100EF0009F3748F4911116F00C94180860E070E0E8
:100F000080E89FEB089526F41B16611D711D811D5D
:100F10000C9492070C94AD0797F99F6780E870E0F6
:100F200060E00895882371F4772321F09850872B8F
:100F3000762F07C0662311F499270DC09051862B98
:100F400070E060E02AF09A95660F771F881FDAF745
:100F5000880F9695879597F908959F3F31F09150A6
:100F600020F4879577956795B795880F911D96958D
:100F7000879597F908959FEF80EC089500240A94CF
:100F80001616170618060906089500240A94121664
:100F90001306140605060895092E0394000C11F497
:100FA000882352F0BB0F40F4BF2B11F460FF04C044
:100FB0006F5F7F4F8F4F9F4F089557FD9058440F9D
:100FC000551F59F05F3F71F04795880F97FB991FA8
:100FD00061F09F3F79F08795089512161306140665
:100FE000551FF2CF4695F1DF08C0161617061806F2
:100FF000991FF1CF869571056105089408950E94A7
:10100000E507A0F0BEE7B91788F4BB279F3860F466
:101010001616B11D672F782F8827985FF7CF869512
:1010200077956795B11D93959639C8F30895E8941F
:10103000BB2766277727CB0197F908950E943108CF
:101040000C94CC070E94BE0738F00E94C50720F020
:10105000952311F00C948C070C94BB0711240C946D
:1010600018080E94DD0770F3959FC1F3950F50E0BB
:10107000551F629FF001729FBB27F00DB11D639F4A
:10108000AA27F00DB11DAA1F649F6627B00DA11DF0
:10109000661F829F2227B00DA11D621F739FB00D96
:1010A000A11D621F839FA00D611D221F749F332706
:1010B000A00D611D231F849F600D211D822F762F9F
:1010C0006A2F11249F5750409AF0F1F088234AF07C
:1010D000EE0FFF1FBB1F661F771F881F91505040E8
:1010E000A9F79E3F510580F00C948C070C941808CA
:1010F0005F3FE4F3983ED4F3869577956795B7956F
:10110000F795E7959F5FC1F7FE2B880F911D969588
:10111000879597F90895EE0FFF1F0590F491E02D44
:101120000994F894FFCF8000C000E000F000F800C0
:10113000FC00FE00FF0000000100030007000F009C
:101140001F003F007F00FF000000FF000000FF00C5
:101150000000FF00000000000000FF00FF00FF0093
:101160000000FF00FF00FF000000FF00FF00FF0085
:101170000000FF000000FF000000FF000000000072
:101180000000800040002000100008000400020061
:1011900001000200040008001000200040000500CB
:1011A0000600070009000A000B000C000D000000FB
:1011B0000000CB012B0158011802890167017B0156
:1011C0000D0A005475726E696E67206C6566740056
:1011D0005475726E696E67207269676874004F6635
:1011E0006600416C6C206F6E00466C617368696EBE
:1011F00067004261636B20616E6420666F72746881
:0612000000534F530000F3
:107E0000112484B714BE81FFF0D085E080938100F7
:107E100082E08093C00088E18093C10086E0809377
:107E2000C20080E18093C4008EE0C9D0259A86E02C
:107E300020E33CEF91E0309385002093840096BBD3
:107E4000B09BFECF1D9AA8958150A9F7CC24DD24C4
:107E500088248394B5E0AB2EA1E19A2EF3E0BF2EE7
:107E6000A2D0813461F49FD0082FAFD0023811F036
:107E7000013811F484E001C083E08DD089C08234E0
:107E800011F484E103C0853419F485E0A6D080C0E4
:107E9000853579F488D0E82EFF2485D0082F10E0AE
:107EA000102F00270E291F29000F111F8ED06801E7
:107EB0006FC0863521F484E090D080E0DECF843638
:107EC00009F040C070D06FD0082F6DD080E0C81688
:107ED00080E7D80618F4F601B7BEE895C0E0D1E017
:107EE00062D089930C17E1F7F0E0CF16F0E7DF06D8
:107EF00018F0F601B7BEE89568D007B600FCFDCFD4
:107F0000A601A0E0B1E02C9130E011968C91119780
:107F100090E0982F8827822B932B1296FA010C0160
:107F200087BEE89511244E5F5F4FF1E0A038BF0790
:107F300051F7F601A7BEE89507B600FCFDCF97BE46
:107F4000E89526C08437B1F42ED02DD0F82E2BD052
:107F50003CD0F601EF2C8F010F5F1F4F84911BD097
:107F6000EA94F801C1F70894C11CD11CFA94CF0C13
:107F7000D11C0EC0853739F428D08EE10CD085E9AC
:107F80000AD08FE07ACF813511F488E018D01DD067
:107F900080E101D065CF982F8091C00085FFFCCF94
:107FA0009093C60008958091C00087FFFCCF809118
:107FB000C00084FD01C0A8958091C6000895E0E648
:107FC000F0E098E1908380830895EDDF803219F02E
:107FD00088E0F5DFFFCF84E1DECF1F93182FE3DFCA
:107FE0001150E9F7F2DF1F91089580E0E8DFEE27F6
:047FF000FF270994CA
:027FFE00040479
:00000001FF
