:100000000C9462000C948A000C948A000C948A0070
:100010000C948A000C948A000C948A000C948A0038
:100020000C948A000C948A000C948A000C948A0028
:100030000C948A000C948A000C948A000C948A0018
:100040000C94B9020C948A000C9429030C940303B9
:100050000C948A000C948A000C948A000C948A00F8
:100060000C948A000C948A000000000023002600F3
:10007000290000000000240027002A0000000000E2
:10008000250028002B0004040404040404040202D4
:100090000202020203030303030301020408102007
:1000A0004080010204081020010204081020000012
:1000B0000008000201000003040700000000000027
:1000C0000000370511241FBECFEFD8E0DEBFCDBF43
:1000D00011E0A0E0B1E0E8EAFFE002C005900D9277
:1000E000AE38B107D9F722E0AEE8B1E001C01D9209
:1000F000AF33B207E1F710E0C2E6D0E004C02197C9
:10010000FE010E94CC07C136D107C9F70E945B03EC
:100110000C94D2070C940000833081F028F48130D5
:1001200099F08230A9F008958730A9F08830C9F09D
:100130008430B1F4809180008F7D03C08091800075
:100140008F7780938000089584B58F7784BD08955C
:1001500084B58F7DFBCF8091B0008F778093B00006
:1001600008958091B0008F7DF9CF1F93CF93DF93D7
:10017000282F30E0F901E255FF4F8491F901E6564E
:10018000FF4FD491F901EA57FF4FC491CC23A9F056
:10019000162F81110E948C00EC2FF0E0EE0FFF1F54
:1001A000E458FF4FA591B4918FB7F894EC911111D9
:1001B00008C0D095DE23DC938FBFDF91CF911F91D4
:1001C0000895DE2BF8CFCF93DF9390E0FC01E65645
:1001D000FF4F24918A579F4FFC0184918823C9F0D7
:1001E00090E0880F991FFC01EE58FF4FA591B49144
:1001F000FC01E458FF4FC591D49161110DC09FB728
:10020000F8948C91209582238C93888128232883CD
:100210009FBFDF91CF910895623051F49FB7F8945A
:100220003C91822F809583238C93E8812E2BEFCFF6
:100230008FB7F894EC912E2B2C938FBFEACFAF920F
:10024000BF92CF92DF92EF92FF920F931F93CF93C3
:10025000DF936C017B018B01040F151FEB015E0125
:10026000AE18BF08C017D10759F06991D601ED91BA
:10027000FC910190F081E02DC6010995892B79F759
:10028000C501DF91CF911F910F91FF90EF90DF900B
:10029000CF90BF90AF900895FC01538D448D252FD2
:1002A00030E0842F90E0821B930B541710F0CF9610
:1002B000089501970895FC01918D828D981761F042
:1002C000A28DAE0FBF2FB11D5D968C91928D9F5F59
:1002D0009F73928F90E008958FEF9FEF0895FC0138
:1002E000918D828D981731F0828DE80FF11D858DEB
:1002F00090E008958FEF9FEF0895FC01918D228D7E
:10030000892F90E0805C9F4F821B91098F73992702
:10031000089582EA91E00E947D0121E0892B09F491
:1003200020E0822F089580E090E0892B29F00E9440
:10033000890181110C9400000895FC01A48DA80F7F
:10034000B92FB11DA35ABF4F2C91848D90E0019617
:100350008F739927848FA689B7892C93A089B18937
:100360008C91837080648C93938D848D981306C0D8
:100370000288F389E02D80818F7D80830895EF923C
:10038000FF920F931F93CF93DF93EC0181E0888F4F
:100390009B8D8C8D98131AC0E889F989808185FF1F
:1003A00015C09FB7F894EE89FF896083E889F989C1
:1003B00080818370806480839FBF81E090E0DF91C3
:1003C000CF911F910F91FF90EF900895F62E0B8D16
:1003D00010E00F5F1F4F0F731127E02E8C8D8E11D1
:1003E0000CC00FB607FCFACFE889F989808185FF38
:1003F000F5CFCE010E949D01F1CFEB8DEC0FFD2FCB
:10040000F11DE35AFF4FF0829FB7F8940B8FEA89F2
:10041000FB8980818062CFCFCF93DF93EC01888D01
:100420008823B9F0AA89BB89E889F9898C9185FD6F
:1004300003C0808186FD0DC00FB607FCF7CF8C91FD
:1004400085FFF2CF808185FFEDCFCE010E949D0117
:10045000E9CFDF91CF910895CF93DF93FC01019015
:100460000020E9F73197AF01481B590BBC0182EA24
:1004700091E00E941F01EC0142E050E064E671E06F
:1004800082EA91E00E941F018C0F9D1FDF91CF91A6
:1004900008952F923F924F925F926F927F928F9228
:1004A0009F92AF92BF92CF92DF92EF92FF920F9303
:1004B0001F93CF93DF931C01CB01BA01E901A70180
:1004C00096010E945F076B017C010E94B6062B011A
:1004D0003C01B801110F880B990B0E947B064B0160
:1004E0005C01A3019201C701B6010E9464059B0152
:1004F000AC01C501B4010E945F070E94B6060E94CC
:100500004306660F771FC60FD71F48815981F10137
:1005100090E080E061E070E0A1E09B01082E02C065
:10052000220F331F0A94E2F724233523082E02C03A
:10053000369527950A94E2F7232BC9F41082019689
:1005400031968530910549F7DF91CF911F910F9139
:10055000FF90EF90DF90CF90BF90AF909F908F90E3
:100560007F906F905F904F903F902F900895A08361
:10057000E6CF1F920F920FB60F9211242F933F9345
:100580008F939F93AF93BF9380919E0190919F0112
:10059000A091A001B091A10130919D0123E0230F12
:1005A0002D3758F50196A11DB11D20939D01809313
:1005B0009E0190939F01A093A001B093A10180910F
:1005C000990190919A01A0919B01B0919C01019693
:1005D000A11DB11D8093990190939A01A0939B0155
:1005E000B0939C01BF91AF919F918F913F912F91BB
:1005F0000F900FBE0F901F90189526E8230F0296BC
:10060000A11DB11DD2CF1F920F920FB60F921124D0
:100610002F933F934F935F936F937F938F939F930A
:10062000AF93BF93EF93FF9382EA91E00E949D0105
:10063000FF91EF91BF91AF919F918F917F916F91BA
:100640005F914F913F912F910F900FBE0F901F9090
:1006500018951F920F920FB60F9211242F938F931C
:100660009F93EF93FF93E091B201F091B3018081EA
:10067000E091B801F091B90182FD1BC09081809199
:10068000BB018F5F8F732091BC01821741F0E09115
:10069000BB01F0E0EE55FE4F958F8093BB01FF91BB
:1006A000EF919F918F912F910F900FBE0F901F9000
:1006B00018958081F4CFCF93DF93CDB7DEB7ED9758
:1006C0000FB6F894DEBF0FBECDBF789484B58260BC
:1006D00084BD84B5816084BD85B5826085BD85B5E6
:1006E000816085BD80916E00816080936E00109264
:1006F00081008091810082608093810080918100DF
:10070000816080938100809180008160809380006F
:100710008091B10084608093B1008091B0008160CD
:100720008093B00080917A00846080937A008091F9
:100730007A00826080937A0080917A008160809351
:100740007A0080917A00806880937A001092C100CC
:1007500062E088E00E94E30060E083E10E94E30041
:100760000AE511E0F80180810E5F1F4F61E00E94F1
:10077000E300F1E004361F07A9F7E091B201F09120
:10078000B30182E08083E091AE01F091AF0110826D
:10079000E091B001F091B1018FEC80831092BA0129
:1007A000E091B601F091B70186E08083E091B40159
:1007B000F091B501808180618083E091B401F09176
:1007C000B501808188608083E091B401F091B5012A
:1007D000808180688083E091B401F091B5018081CF
:1007E0008F7D8083BEE82B2EB0E03B2E5E0129E397
:1007F000A20EB11C3E018EE3680E711C10E0412E6A
:1008000010E0512E0FE1802E912CE6EBF0E0849168
:10081000E2EAF0E01491F1010491002309F480C0B0
:1008200081110E948C00E02FF0E0EE0FFF1FE859CD
:10083000FF4FA591B4918C91182301E009F000E0DD
:100840008091980180136EC000E02FB7F8946091FA
:100850009E0170919F018091A0019091A1012FBFF5
:100860000E94790620E030E04AE754E40E94D10576
:1008700020919401309195014091960150919701FA
:100880000E9464056093900170939101809392019E
:1008900090939301002369F080918E0190918F01D4
:1008A0000196853091050CF05EC090938F01809386
:1008B0008E01F50125E011922A95E9F780918E01CC
:1008C00090918F018230910509F49AC00CF050C0CC
:1008D000009709F473C0019709F475C085018AE592
:1008E000E82E81E0F82EF80191918F01F7018081C7
:1008F000F2E0EF0EF11C61E0911101C060E00E9496
:10090000B5006016710679F74114510409F47DCFE2
:100910000E948901882309F478CF0E94000075CFD6
:1009200001E08ECF00939801002309F48DCF2FB7FB
:10093000F89460919E0170919F018091A001909127
:10094000A1012FBF0E94790620E030E04AE754E47D
:100950000E94D10560939401709395018093960154
:100960009093970172CF10928F0110928E01A1CFB8
:100970008330910509F45DC0049709F0AFCF8AE890
:1009800091E00E942C024091900150919101609160
:1009900092017091930188E3E0E0F1E0DE011196AD
:1009A00001900D928A95E1F79DECC92E9CECD92E11
:1009B000ED2C9DE3F92E0CE110E01BC087E691E0E1
:1009C0000E942C028BCF8BE691E00E942C0240917A
:1009D00090015091910160919201709193019A82DE
:1009E0008982C12CD12CE0E8EE2EEFE3FE2E01E04F
:1009F00010E09E012F5F3F4FC5010E9449026ECF5C
:100A000082E791E00E942C02409190015091910167
:100A100060919201709193019A8289821C821B825B
:100A2000C12CD12C30E8E32E3FE3F32E02E010E09E
:100A3000E0CF8BE791E00E942C0240919001509111
:100A40009101609192017091930180E1E8E3F1E0FE
:100A5000DE01119601900D928A95E1F7C12CD12CFF
:100A600020E8E22E2FE3F22E08E010E0C2CFE2EA07
:100A7000F1E01382128288EE93E0A0E0B0E084837C
:100A80009583A683B7838CE491E09183808385EC82
:100A900090E09587848784EC90E09787868780EC48
:100AA00090E0918B808B81EC90E0938B828B82EC39
:100AB00090E0958B848B86EC90E0978B868B118EE3
:100AC000128E138E148E08955058BB27AA270E94A9
:100AD0007C050C940D070E94FF0638F00E94060763
:100AE00020F039F49F3F19F426F40C94FC060EF420
:100AF000E095E7FB0C94CD06E92F0E941E0758F302
:100B0000BA17620773078407950720F079F4A6F5F2
:100B10000C9458070EF4E0950B2EBA2FA02D0B0164
:100B2000B90190010C01CA01A0011124FF27591B32
:100B300099F0593F50F4503E68F11A16F040A22F38
:100B4000232F342F4427585FF3CF469537952795A9
:100B5000A795F0405395C9F77EF41F16BA0B620BA8
:100B6000730B840BBAF09150A1F0FF0FBB1F661FEF
:100B7000771F881FC2F70EC0BA0F621F731F841F32
:100B800048F4879577956795B795F7959E3F08F058
:100B9000B0CF9395880F08F09927EE0F979587951A
:100BA00008950E94E5050C940D070E94060758F071
:100BB0000E94FF0640F029F45F3F29F00C94CD0617
:100BC00051110C9459070C94FC060E941E0768F3FF
:100BD0009923B1F3552391F3951B550BBB27AA27F6
:100BE00062177307840738F09F5F5F4F220F331F30
:100BF000441FAA1FA9F335D00E2E3AF0E0E832D0F8
:100C000091505040E695001CCAF72BD0FE2F29D0FA
:100C1000660F771F881FBB1F261737074807AB07CC
:100C2000B0E809F0BB0B802DBF01FF2793585F4F41
:100C30003AF09E3F510578F00C94CD060C9459077C
:100C40005F3FE4F3983ED4F3869577956795B79523
:100C5000F7959F5FC9F7880F911D9695879597F92E
:100C60000895E1E0660F771F881FBB1F62177307A7
:100C70008407BA0720F0621B730B840BBA0BEE1FBC
:100C800088F7E09508950E944A066894B1110C9483
:100C9000590708950E94260788F09F5798F0B92FAA
:100CA0009927B751B0F0E1F0660F771F881F991FA1
:100CB0001AF0BA95C9F714C0B13091F00E945807E4
:100CC000B1E008950C945807672F782F8827B85FF4
:100CD00039F0B93FCCF3869577956795B395D9F7F9
:100CE0003EF490958095709561957F4F8F4F9F4F03
:100CF0000895E89409C097FB3EF49095809570950F
:100D000061957F4F8F4F9F4F9923A9F0F92F96E957
:100D1000BB279395F695879577956795B795F111CC
:100D2000F8CFFAF4BB0F11F460FF1BC06F5F7F4F69
:100D30008F4F9F4F16C0882311F096E911C077237B
:100D400021F09EE8872F762F05C0662371F096E884
:100D5000862F70E060E02AF09A95660F771F881F53
:100D6000DAF7880F9695879597F908950E944007BE
:100D700090F09F3748F4911116F00C94590760E0F9
:100D800070E080E89FEB089526F41B16611D711D2D
:100D9000811D0C94D3060C94EE0697F99F6780E8AA
:100DA00070E060E00895882371F4772321F0985073
:100DB000872B762F07C0662311F499270DC0905119
:100DC000862B70E060E02AF09A95660F771F881FE7
:100DD000DAF7880F9695879597F908959F3F31F038
:100DE000915020F4879577956795B795880F911D59
:100DF0009695879597F908959FEF80EC08950024C4
:100E00000A941616170618060906089500240A946F
:100E100012161306140605060895092E0394000CF5
:100E200011F4882352F0BB0F40F4BF2B11F460FF84
:100E300004C06F5F7F4F8F4F9F4F089557FD9058AD
:100E4000440F551F59F05F3F71F04795880F97FB8E
:100E5000991F61F09F3F79F0879508951216130648
:100E60001406551FF2CF4695F1DF08C01616170677
:100E70001806991FF1CF86957105610508940895AC
:100E80000E942607A0F0BEE7B91788F4BB279F3859
:100E900060F41616B11D672F782F8827985FF7CF5B
:100EA000869577956795B11D93959639C8F3089502
:100EB000E894BB2766277727CB0197F908950E940E
:100EC00072070C940D070E94FF0638F00E94060777
:100ED00020F0952311F00C94CD060C94FC061124FF
:100EE0000C9459070E941E0770F3959FC1F3950F4C
:100EF00050E0551F629FF001729FBB27F00DB11D9E
:100F0000639FAA27F00DB11DAA1F649F6627B00D2D
:100F1000A11D661F829F2227B00DA11D621F739F16
:100F2000B00DA11D621F839FA00D611D221F749F24
:100F30003327A00D611D231F849F600D211D822F6B
:100F4000762F6A2F11249F5750409AF0F1F0882392
:100F50004AF0EE0FFF1FBB1F661F771F881F9150BF
:100F60005040A9F79E3F510580F00C94CD060C949B
:100F700059075F3FE4F3983ED4F3869577956795DC
:100F8000B795F795E7959F5FC1F7FE2B880F911DE9
:100F90009695879597F90895EE0FFF1F0590F491A8
:080FA000E02D0994F894FFCF45
:100FA8001F0000001F0000001F00000000000000DC
:100FB8001F001F001F0000001F001F001F0000006F
:100FC8001F001F001F0000001F0000001F0000007E
:100FD8001F000000000000001000080004000200CC
:100FE800010002000400080000000000BF011F010A
:100FF8004C010C027D015B016F0109000A000B0026
:101008000C000D000D0A004F666600416C6C206FE5
:101018006E00466C617368696E67004261636B209D
:0E102800616E6420666F72746800534F53004F
:00000001FF
